:020000040000FA
:1000000000400020D9820100158301001783010000
:1000100000000000000000000000000000000000E0
:100020000000000000000000000000001983010033
:1000300000000000000000001B8301001D83010080
:100040001F830100514D0100658701001F830100DE
:100050001F830100000000001F8301001F830100B7
:10006000F1FA0000D18C01001F8301001F83010001
:100070001F8301001F8301001F8301001F830100F4
:100080001F8301001F8301001F8301001F830100E4
:100090001F830100957E0100617F01002DFC00009F
:1000A0003DFC00001F830100000000000000000074
:1000B0000000000000000000000000000000000040
:1000C00010B5064C2378002B07D1054B002B02D02E
:1000D000044800E000BF0123237010BD8802002007
:1000E0000000000028850300084B10B5002B03D04A
:1000F0000749084800E000BF07480368002B00D10B
:1001000010BD064B002BFBD09847F9E7000000001C
:100110008C020020288503007C02002000000000E3
:10012000164B002B00D1144B9D46402292029A1A86
:10013000924600218B460F461348144A121A28F0A3
:10014000BDFD0F4B002B00D098470E4B002B00D06D
:1001500098470020002104000D000D48002802D01F
:100160000C4800E000BF1FF0BDFD2000290028F072
:1001700019FB1FF001FDC0460000080000400020F0
:10018000000000000000000080020020F42F00208A
:10019000000000000000000010B50400080020F07E
:1001A000C6FC0300002C03D0012C06D0002003E085
:1001B0000348002B00DC034810BD40002043FBE750
:1001C000A09B0200989B020043684B6083688B6091
:1001D000C3680800CB60014B0B6070474C8F020076
:1001E000F0B50E00002785B0110003901D0001221C
:1001F00003233000009702F0DFFA102025F07EFA8A
:10020000039B0400036001234760C36028689E428B
:1002100005D10EF093FBA060200005B0F0BD0EF0FC
:100220008DFB606068680EF089FBA060032EF3D13F
:10023000A8680EF083FBE0600028EDD1014809F0CA
:10024000F7FCC0460AF8020070B50D004A688B68DA
:100250000849040024F007FDEA68012A04D1064990
:10026000200024F038FC70BD0449200024F0FBFC81
:10027000F9E7C04614F802008C4B030021F8020095
:1002800030B5040087B00D000020042A25D12000DD
:1002900020F04DFCAB0722D1184B2A689A421ED1A0
:1002A00003AA290002F0ACFB102025F027FA144B1A
:1002B000E2680360039B616853435B184360049BDF
:1002C0006168019353435B18059983604A43C26098
:1002D000002902DAE2689B1A836007B030BD002370
:1002E00001002A0020680EF001FCE36858436368AF
:1002F000C31801205B001843EFE7C046C8A3020003
:10030000108F0200136810B51400002B05D1A4292A
:1003100004D1406820F088FC206010BDB9235B0048
:10032000994201D18068F5E7024B9942F5D1C06846
:10033000F0E7C046BE02000010B5102025F0DEF93F
:100340000400034B08C023F0AEFA200010BDC046E5
:100350007CA0020070B50C00052804D818F0CCFD74
:1003600006030C04131C0024200070BD8B680E4C87
:10037000002BF9D10D4CF7E7081D23F00EFF0124E7
:1003800040000443F0E7FFF7D7FF211D05000430CC
:1003900023F01DFC2C00E7E7FFF7CEFF211D050031
:1003A000043023F024FCF5E7A09B0200989B020098
:1003B00070B5050083070CD1104B02689A4208D132
:1003C000FFF7BAFF0400291D043023F0F5FB2000DD
:1003D00070BD28000EF0B2FAC0231B06984205D16A
:1003E00080200021C00520F010FCF1E7C21783181F
:1003F000012053405B001843EAE7C0467CA002009E
:1004000007B5C30701D540100EBD043001A908F09F
:100410009DFD002801D00198F6E70249024824F02A
:1004200019F8C0464DF8020058B502000123F0B596
:100430008BB001900D0017000B402AD04B10022208
:1004400003A904A823F06DFA04AEFB072BD57B109B
:10045000022203A904A823F064FA04AD019B092B2E
:1004600001D0162B35D16B68002B5FD0300023F004
:10047000EAFE041C280023F0E6FE011C201C19F0F3
:10048000D1F9032302249843734B2043C0180BB0C7
:10049000F0BD0320084000D0D6E0704B0A689A42B5
:1004A000F5D10E1DD1E703231F4205D16B4A3968F0
:1004B000914201D13D1DD1E73B40022B03D1684B56
:1004C0003B40062B7BD13A002900019801F010FF38
:1004D000DDE7019B182B00D98DE0FFF72DFF04000D
:1004E000019818F009FD454B3F51510D141A207524
:1004F000346675454B3F51510D141A207534660012
:10050000201D2A00310023F009FC2000BFE7201D38
:100510002A00310023F03CFCF7E7201D2A003100BF
:1005200023F076FDF1E76B68002B03D14D494E486F
:1005300023F090FF07A823F0B6F92B003200201D0E
:1005400007A908F09BFB07A823F0B9F9DDE76B6862
:10055000002BEBD007A823F0A6F9211D2B003200B9
:1005600007A8EEE7201D2A00310023F059FCCCE754
:10057000201D2A00310023F0D5FCC6E7201D2A00EB
:10058000310008F007FBC0E73800FFF739FF021E13
:1005900002DA364809F04CFB019B201D3100032B89
:1005A00001D0102B02D108F089FAAEE723F056FBF8
:1005B000ABE76B68002B49D02B78DB0746D53000C2
:1005C00023F041FE3A00011C019808F09FF95EE714
:1005D0006B68002BAAD0FFF7AFFE0700211D043087
:1005E0002B00320008F04AFB07A902200797089465
:1005F00001F098FB4BE72900300023F0BAFA019A8A
:100600000300193A0020042A00D940E7100018F02E
:1006100073FC0309160D12001548002B00DB36E7AA
:10062000144834E71248002BFADC30E71048002B5E
:1006300000DD2CE7F4E70E48002BF1DA27E70C4841
:10064000002B00D023E7EBE7180020E7201D2A004D
:10065000310023F060FD58E7000080807CA002009C
:10066000070080FF27F8020038B7020038F80200C0
:10067000989B0200A09B020070B504000EF076F873
:1006800000230C4AD9008D58AC4207D1521851684A
:10069000094824F020FA0123180070BD0133602BB3
:1006A000F0D1064A944202D000239042F4D104498A
:1006B000EEE7C04698980200D4BA0200C4E90200EE
:1006C0007AF8020010B50B790349002B00D10349D9
:1006D00024F001FA10BDC046261E03002B1E0300A5
:1006E00037B50C00110000221D00009201232000EC
:1006F00002F062F8002C05D028680EF05DFA034B7A
:10070000002800D1024B18003EBDC046A09B02004D
:10071000989B020037B50400A06808F0BDFE019068
:1007200000280ED06568074B9D4205D001AB002222
:100730000121280008F058FD0EF03EFA0028EBD009
:1007400001983EBD5CA40200004870470148E801E2
:1007500010B50EF0F3F880F31088014810BDC046C4
:100760005CA4020073B50600194D0C0028001FF0B0
:1007700013FC310017481FF095FB17481FF00CFCC5
:1007800016481FF009FCFF239B00E61821787F29FB
:1007900001D0B44206D128001FF0FEFB10481FF024
:1007A000FBFB73BDA37850290CD80E4A505C0E4A4F
:1007B000525C01936378009303000C481FF072FBB6
:1007C0000434E3E762780A481FF06CFBF8E7C046A0
:1007D000E41E0300111F0300191F0300A21E0300E3
:1007E000C01E030061470300104703003A1F0300C7
:1007F0005D1F0300F0B51D008BB007901B4816006D
:1008000008911FF0C9FB290019481FF04BFB19483C
:100810001FF0C2FB18481FF0BFFB0024AC4204DBF2
:1008200012481FF0B9FB0BB0F0BD089B375DA0006C
:100830000799181803788278095D049707689B0662
:100840003F037F0E0397C7789B0E09933B090293E2
:1008500000883F07C004400E3F0F01901209009727
:10086000099B06481FF01EFB0134D7E7E41E030076
:10087000311E03005E1E0300901E0300C21E030013
:10088000F7B52D4FB43701972B4A2C49FC32536CE6
:100890008B4200D8F7BD0325043B53641A68264BEE
:1008A000501CAC331E6804008108715C2C4064004D
:1008B0002141831A294001300229F4D003260199ED
:1008C000120109681B018A181B499B08002BDBD009
:1008D0000F201468044229D119480068844225D3A6
:1008E0000D00B8352D68AC4220D2241A20090090A2
:1008F0000800AC300068A409009D04192078354038
:100900006D0084462841304001280FD13700AF40A8
:100910003D0067463D4325700D00FC356C6C094F6A
:10092000BC4206D2201D686400982060013B04325E
:10093000CCE70C00BC34F8E7902E0020502F0020AC
:10094000442F0020D02F00200F23994370B50600BC
:100950000D00081A412118F0EDFA114C0200230095
:10096000B033186023002100AC331E608301EB1A02
:10097000B4310B6023003000B83300211D6028F033
:100980009DF9A22100220120230049006252023178
:1009900060524839FC33FF395A651965DA6470BD15
:1009A000902E0020A222034952008B5A01338B5211
:1009B0007047C046902E0020A222034952008B5A55
:1009C000013B8B527047C046902E0020A223034A61
:1009D0005B00D05A431E9841C0B27047902E002051
:1009E000F7B50024032500900191019B9C4200D1A2
:1009F000F7BD009AA300D1580F23194229D1184BF3
:100A00001A00B4321268914223D31800B83000683B
:100A100081421ED2891A1A000F093800AC321268BE
:100A2000890951180A7828404000944602412A401A
:100A3000012A0ED12E0086403000664630430870F1
:100A40001800FC30416C074EB14206D20B1D4364C6
:100A50000F60FFF715FF0134C7E7BC331A60F8E7F2
:100A6000902E0020D02F0020A22210B5084852005E
:100A7000835A01000133835203000022FC33BC314E
:100A80000A60DA64034A27215A64FFF7A9FF10BD00
:100A9000902E0020502F0020F8B503262E4C002564
:100AA0002200BC321368AB4213D102221900032783
:100AB00094462200B0321268920091422AD3230059
:100AC0000022FC335A654532FF32A35A013BA35240
:100AD000F8BD23001560214AFC335A642300B0336B
:100AE0001B689B009D42D9D22200AC321268AB0831
:100AF000D35C2A003240520013413340032B07D10C
:100B00002200FC32536C191D51641D60FFF7B8FEC2
:100B10000135E3E72000AC3000688A0880180278CD
:100B20000D0016003D406D002E413E40022E09D0C2
:100B3000032E0BD0012E07D13B00AB409A4302702D
:100B4000012301E0002BF7D10131B2E76346AB404E
:100B50009A4302700023F7E7902E0020502F0020C8
:100B6000334BF7B51A001900B832B431096812686E
:100B70000327521A190002600022AC3109681400E0
:100B800001911100B0331E6842608260C260026150
:100B900042618261B600019D8B08EB5C0D003D4017
:100BA0006D002B413B40012B33D0002B2BD0022B6F
:100BB00033D00131B1420AD0019D8B08EB5C0D00AE
:100BC0003D406D002B413B4001D0012BE3D1012C76
:100BD00028D10569013505618569AC4200D9846178
:100BE000B14201D0012BD6D1C3689A4200D9C2606C
:100BF000B14206D143681B01436083681B018360D7
:100C0000F7BD0022C7E784680132013484601C000C
:100C1000CFE7446801344460F9E7456801340135A1
:100C20004560C6E7022CD7D1456901354561D3E758
:100C3000902E0020F7B50F300309019302D1002553
:100C40002800FEBDA223474A5B00D35A002BF6D1F1
:100C50004733FF33D35A5C425C41002B07D0414BF2
:100C6000FC33DA6C1B6D9A4201D309F0B3FD002509
:100C700030213F263B4A3B4BB0321268FC3394464E
:100C8000384A5B6DAC321068634505D3002CD6D171
:100C900009F0A0FD0134EBE70327C25C3A4231D1F1
:100CA000019F0135AF422ED89B00591B4C1C012DD2
:100CB00004D12C4D5A1CFC3592086A65A208801894
:100CC00026000322012516407600B5400678023141
:100CD0003543244E0570AC368B4235D22149220172
:100CE000B4310D680199AD181E4A0133FC32D66C3F
:100CF0002800B4466144D1641A1B1201002127F078
:100D0000DDFF9DE700250C273A4206D1019F013502
:100D1000AF4203D89B000133C7E700250A4206D142
:100D2000019F0135AF4203D89B000233BDE7002588
:100D3000B24306D1019A0135AA4203D89B0003337E
:100D4000B3E7002501339FE73568880828180D00B0
:100D5000022715406D00AF403D00077801313D434B
:100D60000570B9E7902E0020A22230B5164B520034
:100D70009A5A002A26D1002824D01A00B4321268C8
:100D8000801A1A00FC32546D01098009A04200D279
:100D90005065AC331800032204688B08E3180C007C
:100DA000150014406400A5401C780131AC431C7050
:100DB00004688B08E35C0C0014406400234113407A
:100DC000022BE9D030BDC046902E00200F22030038
:100DD0000240002070B5824228D1154C100021003D
:100DE000B43109688B4221D32000B8300568100067
:100DF000AB421BD2AC345B1A246819099B09E55C31
:100E00000800032318404000054110001D40012D3B
:100E10000CD14D1C2E00AA08A25C1E407600324167
:100E2000681A1A400135022AF4D0000170BDC0468C
:100E3000902E0020F0B585B007000D00029200282A
:100E400007D101002800FFF7F5FE0600300005B0CD
:100E5000F0BD002903D1FFF787FF2E00F6E70F2131
:100E600000260140B142F1D153480E000300B433D3
:100E70001B689F42EAD30200B83212689742E5D25B
:100E8000FB1A1A0900920200AC3212689B09019207
:100E9000D25C0323009C23405B001A4103231A40C9
:100EA000012AD3D14233FF33C35A002BCED12900BC
:100EB0000F310909B0308C4601680326890003917F
:100EC000210014000131039A914212D201988A083C
:100ED000825C08003040400002413240022A02D1C8
:100EE00001340131EFE7002A03D10133E2189445C0
:100EF000F7D8644501D13E00A8E7644521D9009B9D
:100F0000032663441900009B0800E218AC239C46AA
:100F1000294B9C44634605001B6884081C19330058
:100F200035406D00AB40257801309D4325709042DF
:100F3000F0D1214B8908FC335A6D9142DBD25965BF
:100F4000D9E71B199C4523D8032502261A49009B83
:100F5000AC31E3180191009A6244934209D363468D
:100F6000191B090120010A003818002127F0A6FEEC
:100F7000C1E70199180009689A088A1831002840C9
:100F80004000814008001178013308431070E2E707
:100F9000029E002E00D159E700212800FFF74AFEEB
:100FA000061E00D152E72201390027F06CFE3800FE
:100FB000FFF7DAFE4AE7C046902E002010B58CB04D
:100FC00005A8FFF7CDFD079B0A4C03930093059AF4
:100FD000069B0949200023F046FE089B099A0193CD
:100FE0000B9B06490393009320000A9B23F03BFED2
:100FF0000CB010BDD4BA0200BD1F0300E01F0300F7
:10100000F8B5434E434F3300B4331A6842493800B1
:1010100023F029FE00243300B0331B689B009C4260
:1010200023D23F2214422CD132002500AC3210686A
:101030000321AA08825C294049000A4103210A428F
:1010400002D10135AB42F3D12A1B7F2A12D9920972
:101050003249380023F007FE2C003F239C43330025
:10106000B0331B689B009C4204D338002C4923F00A
:1010700032FDF8BD2B4B22011A402B49380023F0DA
:10108000F2FD3200AC321268A308D35C0322224086
:1010900052001341032213403A32022B31D0303236
:1010A000032B2ED02E22012B2BD13300B4331B68FF
:1010B0002201D3581D4954228B4222D01C49083AA0
:1010C0008B421ED01B49083A8B421AD01A490F3264
:1010D0008B4216D019498B4213D01949123A8B42D0
:1010E0000FD018498B420CD0174905328B4208D0DB
:1010F0001649043A8B4204D015490B328B4200D07A
:101100001B321449380023F0AEFD013483E7C0469A
:10111000902E0020D4BA02007E1F0300991F030006
:10112000E24C0300F0FF0F00B51F0300909F020088
:1011300008C002004CD0020090A20200C0AA020027
:1011400080BC020044BC020078AF0200F8C002007C
:1011500080D30200F8220300F7B5CC1CA4000700DE
:1011600020000E00019224F0C9FA22000500054B70
:101170004760866003600C3A01990C3027F083FDCC
:101180002800FEBDE49C020080235B051869034B28
:101190001B7843438020C002C01A7047FB2D0020FB
:1011A00080235B051869034B1B7843438020C002F2
:1011B000C01A7047FC2D002070B5084DC4012B6883
:1011C0000021181924F02BF92868054B00197F30ED
:1011D00000781B788342F0D270BDC046A402002084
:1011E000FA2D002010B5C3790400002B08D0064A60
:1011F000037981791068DB01C018013024F00FF900
:101200000023237210BDC046A402002010B5124B6B
:1012100001001A684379DB01D31818007F30047885
:10122000FF2C08D10879C00112185278FF2A0FD07C
:10123000887990420CD08A799B180132D2B25878C2
:101240007E2A01D08A7110BD00234C718B71FAE7A0
:1012500001204042F7E7C046A402002070B5F82400
:101260008025A40223786D054D2B4CD12B6980205D
:10127000E41A2B69C002E41A2969001B17F05AFE10
:101280002B4B2C4918702B69E21852185D421540FF
:10129000294B2A4A2A49D31A80225B185205116920
:1012A0009D4234D38020C002401B17F043FE254BE3
:1012B000641B1870E411244BE4B21C70A1200123BC
:1012C0000025224A22491360C0004D604B68002B64
:1012D000FCD01358DBB2A342F7D21E4901330B7086
:1012E00001235360FFF750FF037805001A4CFD2BD4
:1012F0000FD180235B051869184BC009C018C001C5
:101300002818206070BD80242B69E402AFE76D18B7
:10131000C5E7FFF745FF0378803DFD2B01D1256030
:10132000F0E7FFF73DFFFD2124F079F8F7E7C0462D
:10133000FC2D0020FF87FFFF000000207C02002022
:1013400034850300FB2D0020FA2D002000D0004042
:10135000FCD00040FD2D0020A4020020FFFFFF0173
:10136000F7B5254B254F1A78254B14001B783968A3
:101370000133E001405CFF2839D00134E4B29C42E3
:1013800000D101249442F4D1802300265B051B691F
:10139000DB090093E30101933B68E2019D182A7881
:1013A000280053425341F61824F04FF80023002838
:1013B00015D1134B01341B78E4B201339C4200D1A8
:1013C00001240D4B1B78A342E4D1072E11D91FF045
:1013D00009FDC6E7DA01AA5C002AEAD10133009AC6
:1013E0009342F7D13868019BC01824F024F82000FC
:1013F000FEBDFF24FBE7C046FD2D0020A402002017
:10140000FA2D0020F7B507000D0001240E4B1B78C4
:1014100001930E4B1E68019B9C4202D9FF242000C1
:10142000FEBDE10171180B78FE2B09D18B78AB4220
:1014300006D103312A00380027F016FC0028EED030
:101440000134E4B2E7E7C046FA2D0020A4020020F0
:1014500010B5054A03791068DB01C01881780022B5
:10146000033003F0DFF810BDA4020020F0B585B012
:1014700002900D0016000393782949D8FFF7C2FFA8
:101480000400002E3CD0FF2801D0FFF795FEFFF7A7
:1014900067FF0400FF2803D11E491F4822F0DAFF2E
:1014A0001E4FC0013B680190FE21181823F0B7FFC2
:1014B0003B68019AE9B29818023023F0B0FF38680F
:1014C000019B2A00C018033002990CF073FE0C2017
:1014D00024F014F9039A0300002A17D0104A1A6066
:1014E0000E4A1C7112685C71E4011419A278DE7155
:1014F00002329A7101221A726A46127B5A7202E013
:101500003300FF28E3D1180005B0F0BD054AE6E737
:101510000023F8E7252003001CB50200A4020020E8
:1015200014B00200C0B0020007B501A903F0D2FC5C
:101530000199FFF767FFFF2803D10449044822F00F
:1015400089FFFFF739FE03480EBDC046582003004F
:101550001CB502005CA40200F7B50192027A0500F6
:101560000091002A02D1254808F062FBC479002CC2
:1015700006D1234A17680279D201D25D002A04D12C
:10158000092201201A604042FEBD69797E22C9010C
:10159000791808007F30AB790078D21AFF2809D17A
:1015A0002879C00138184078FF2819D0C01A824223
:1015B00000D902000198061B964200D91600002EA1
:1015C00019D0009A01331019C918320027F05BFBBB
:1015D000AB799B19DBB27E2B04D0AB71A419D4E795
:1015E0000022E7E70023AB716B79DB01FB187F3347
:1015F0001B786B71F2E72000C6E7C0463B20030072
:10160000A4020020F0B585B00393037A0400019290
:10161000002B02D12F4808F00BFBC379002B34D0EC
:101620002D4A03791268DB019B5C002B2DD0019BB6
:1016300002910093009B002B2CD07E22A379D71A15
:10164000009A974200D917006079234E0133C001F8
:10165000C01833683A00181802990CF0ABFDA37952
:10166000DB19DBB27E2B33D10023A371FFF778FEA9
:101670000500FF2811D12079FFF79EFD002323727A
:101680001C23039A13601D3B03E00923039A136094
:101690000A3B0193019805B0F0BD60793368C00141
:1016A000181829007F3023F0BAFE3368ED0158196D
:1016B000617923F0B4FE62793368D2019B187F33DD
:1016C0001B786371029BDB190293009BDB1BB0E765
:1016D000A371F7E73B200300A4020020002170B5AE
:1016E000080023F04BFE012405000C4B1B78A3429D
:1016F00001D2280070BD0A4AE3011068C0180378BF
:10170000FE2B08D181780022033002F08BFF01000C
:1017100028000CF087FA0134E4B2E6E7FA2D002045
:10172000A402002073B501A903F0D4FB0199FFF7CF
:1017300069FEFF2803D10E490E4822F08BFE0025DA
:101740007E260D4B1C68C301E31859789B78023341
:10175000DBB2C201A2187F321078FF2804D1C81A68
:1017600040191FF061FA76BDF31AED180023F0E777
:10177000582003001CB50200A40200201FB5034A34
:10178000034B23F0B0FB05B000BDC0460D120000B6
:10179000E511000010B50DF035F9054918F032FAE1
:1017A0000323020002209A43024B1043C01810BDCD
:1017B000E02E65420000808010B50DF023F9054948
:1017C00018F020FA0323020002209A43024B104330
:1017D000C01810BD35FA8E3C0000808010B50DF0A9
:1017E00011F9011C18F0CAFC024B002800D1024B71
:1017F000180010BDA09B0200989B020010B50DF0D0
:1018000001F9440064080849201C18F0B7FC0028BE
:1018100005D10549201C17F067FD002801D00348B9
:1018200010BD0348FCE7C046FFFF7F7F989B020086
:10183000A09B020010B50DF0E5F8034B0340022019
:101840001843024BC01810BDFCFFFF7F00008080D2
:1018500010B50DF0D7F8440064080849201C18F0B2
:101860008DFC002807D10549201C17F033FD002806
:1018700001D1034810BD0348FCE7C046FFFF7F7F4E
:10188000A09B0200989B02001FB5002301930DF05E
:10189000B9F801A91AF07CFF032203000220934348
:1018A000064903435B180293019B934303435B1870
:1018B00002A9039300F036FA05B000BD0000808055
:1018C00070B50D000DF09EF8041C28000DF09AF87C
:1018D00018F06CFC0100201C1AF036FF03230200F4
:1018E00002209A43014B1043C01870BD0000808055
:1018F0001FB5002301930DF085F801A91AF0FAFE37
:10190000032302249843074B2043C01802900198F8
:101910001FF08AF902A90390200000F003FA04B036
:1019200010BDC0460000808070B50D000DF06AF853
:10193000041C28000DF066F8011C201C1BF0F8F9AF
:101940000323020002209A43014B1043C01870BDCC
:101950000000808070B50D000DF054F8041C2800C4
:101960000DF050F8C00FC307600040081843032370
:1019700002249843014B2043C01870BD00008080B2
:1019800070B50D000DF03EF8041C28000DF03AF87B
:10199000011C201C1BF054F90323020002209A436F
:1019A000014B1043C01870BD0000808010B50DF0D1
:1019B00029F81AF0A7FC0323020002209A43024BE5
:1019C0001043C01810BDC0460000808010B50DF057
:1019D00019F81BF0E1F80323020002209A43024B9E
:1019E0001043C01810BDC0460000808010B50DF037
:1019F00009F81BF07DF80323020002209A43024BF2
:101A00001043C01810BDC0460000808010B50CF017
:101A1000F9FF1AF0D1FF0323020002209A43024B80
:101A20001043C01810BDC0460000808010B50CF0F7
:101A3000E9FF1AF083FF0323020002209A43024BBE
:101A40001043C01810BDC0460000808010B50CF0D7
:101A5000D9FF1AF0BFFD0323020002209A43024B74
:101A60001043C01810BDC0460000808010B50CF0B7
:101A7000C9FF1BF0E9F80323020002209A43024B3E
:101A80001043C01810BDC0460000808070B50D0026
:101A90000CF0B8FF041C28000CF0B4FF011C201C43
:101AA0001BF02AFA0323020002209A43014B104341
:101AB000C01870BD0000808010B50CF0A3FF00219D
:101AC000041C17F0FDFB002802D0074808F0B0F80E
:101AD000201C1BF0A5FB0323020002209A43034BAA
:101AE0001043C01810BDC04667200300000080806E
:101AF00070B5060008680D000CF084FF0021041C7E
:101B000017F0E8FB002802D0184808F091F8201CD4
:101B10001BF076F9041C012E06D1032302209C43FE
:101B20002043134BC01870BD68680CF06BFF002198
:101B3000051C17F0CFFB0028E6D1FE21281C8905E3
:101B400017F0B8FB002803D00A490B4822F082FCAA
:101B5000281C1BF055F9011C201C17F063FE032301
:101B6000020002209A431043DBE7C04667200300CF
:101B70000000808027F8020038B7020010B504008A
:101B800000F016FF074B02001B690749074823F0C6
:101B90006AF8FFF713FA012C01D1FFF731FA044874
:101BA00010BDC046902E002079200300D4BA020058
:101BB0005CA4020010B50CF0C1FE00F0DDFE01488F
:101BC00010BDC0465CA4020010B5FEF7F5FE01484A
:101BD00010BDC0465CA4020010B5FEF7E3FE01484C
:101BE00010BDC0465CA4020010B586B0040005AB71
:101BF00004AA03A902A80EF045F9059B029A0193D5
:101C0000049B064900930648039B23F02CF8012C03
:101C100001D10EF073F9034806B010BD8E20030009
:101C2000D4BA02005CA4020010B5084C002805D10B
:101C3000A834236801305B00184310BD08680CF01D
:101C40007DFEA83420600248F7E7C046902E0020B1
:101C50005CA40200044B88600B60044B08004B60DE
:101C60000023CB607047C04680C00200F10E020026
:101C700070B50E0010490400002522F02CFF736897
:101C80009D420AD3012B03D10C49200022F023FFEF
:101C90000B49200022F01FFF70BD002D03D0094921
:101CA000200022F018FFAB00F318012299682000F1
:101CB0000CF074FD0135E2E721230300D920030075
:101CC0008C4B0300D620030070B50D0001281ED0F8
:101CD000002803D0022807D0002004E04B680E48FB
:101CE000002B00D10D4870BD00260D4C6B689E4244
:101CF00003D3012064002043F5E7B300EB18996893
:101D0000022007F0FFF9401024180136EEE74B6877
:101D10005B001843E7E7C046A09B0200989B0200C7
:101D2000889F020070B506000D000C48002E0FD0F1
:101D3000B41CA400200023F0E1FC094A0300026067
:101D40004660002D04D00022083C944201D11800C6
:101D500070BDA858991888600432F6E7889F020081
:101D6000909F0200F0B5070085B00D0016001D28F9
:101D700003D90021080005B0F0BD01238340324C97
:101D80001C4045D1314A13421FD1F822920513421B
:101D9000EFD030000CF0EAFC2D4B426A9A4205D09D
:101DA00030002C491FF0CFFF061E0CD03300290055
:101DB00072680831009208336A68380000F09CFEAF
:101DC00025490028D6D12549D4E730000CF0CEFCB7
:101DD000204901F0FBFE0028CBD06B68726821001F
:101DE0009818FFF79FFF070029006B6808379A00D3
:101DF00008310400380026F046FF31006868736837
:101E0000800038189A00083126F03DFF2100B1E724
:101E100003A910000CF0D0FD00218842AAD003983D
:101E200088420FDD6B685843FFF77CFF04002300F6
:101E30002800083300930830039B6A6804211FF0D0
:101E4000C2FDE3E7064995E780001000200004008A
:101E5000551C0000909F0200A09B0200989B02006E
:101E6000889F020030B5040085B0042A2DD10325D7
:101E70000D4020D1164B0A689A421CD101AA406835
:101E800000F0BEFD002802D1124808F0BFF8019B07
:101E900002982900C01AFFF745FF050021006B6872
:101EA00008319A00019B08309C00091926F0EBFECE
:101EB000280005B030BD0A000023616820680CF0DE
:101EC00015FE023080000059F3E70020F1E7C0461C
:101ED000C8A30200DB200300F0B50C0011000022B3
:101EE00085B01E0000920123200000F065FC184D13
:101EF000002C1ED03568AB0703D1164B2A689A42D6
:101F000017D0102023F0FAFB00210400306807F0FE
:101F100061FA002504260390039807F0BDFA071E16
:101F20000AD128002100FFF7FDFE0500200023F064
:101F300014FC280005B0F0BDAE4205D8F100200029
:101F400023F0FAFB04007600AB001F510135E3E7F4
:101F5000889F0200909F0200F0B5486887B00F008C
:101F60000CF0ECFC041E02DA002007F061FEBB68F6
:101F7000164A01939D186B1E9D41010002A821F095
:101F800013FA049E22000021300026F097FE3868E4
:101F9000EDB2C3070AD43300220029001EF010FE60
:101FA00002A90B4802F008FB07B0F0BD4310200067
:101FB000042C00D904200749019F00228F4200D041
:101FC000221AB218290023F065FDE9E75AECFFFF59
:101FD000C0AA0200A6130000F0B50C0087B00122D1
:101FE00003A960680CF064FEA3681349039A8B424E
:101FF0000DD10126049976424C1E019114190499C1
:1020000000200D00002D05D11EF029FE0DE014006A
:102010000126F4E7094F013DB84208D908481B18CA
:10202000581E8341D8B21EF0BCFD07B0F0BD277822
:1020300000023843A419E5E7A6130000FFFF3F00A4
:102040005AECFFFF70B546007408051C211C201CCB
:1020500018F094F8002829D11649201C17F044F9EB
:1020600000281DD1002D0FDA002E06D0FF23DB053E
:10207000EB189C22D205934209D8281C18F096F838
:1020800001244000204370BDEB0DDB05F1E7FEF7B6
:1020900053F90400291C043021F084FC2000F2E7ED
:1020A0000549064822F078FA01F094F9044807F04F
:1020B000BFFDC046FFFF7F7F1C21030058B5020013
:1020C00035210300F0B50C00002585B0110020007B
:1020D0001E00009502232A0000F06EFB0120AC4296
:1020E0002BD0844231D13068204226D103230340D3
:1020F000AB4203D11C4A016891421ED01B4A0240E8
:10210000062A06D0002B0DD10268194B92699A421B
:1021100008D103A902F0DEFE00231A0003990CF097
:1021200083F90AE0032302001A40022A07D1FF22A2
:10213000D20580189843FFF785FF05B0F0BD0CF07D
:10214000FDFB012340001843F7E703A9306802F0C4
:10215000C1FE04007068039F0CF0F0FB2B0002002E
:1021600039002000DBE7C0467CA00200070080FFAA
:102170007D540000F8B51F000B4B150059180139AC
:10218000097816F0D7FE00260400B74204D00130CB
:10219000032116F0CFFE0600281E01D026F0B4FD64
:1021A0000334A4192018F8BD0C210300F0B58DB03C
:1021B0000A9214AA147815AA127806000F00079242
:1021C000DA0748D55D100023002D01DA2D236D427A
:1021D0000693139A079B12992020FFF7CBFF3A68CA
:1021E0000590904204D923F089FA059B30603B604A
:1021F00000213768059BFB185A1E11708D4246D08E
:102200000A3C099208920B941299280016F018FFC4
:102210000C002800129916F08DFE23003033092C93
:1022200001D90B9B1B19089A541E2370079B002B86
:102230004BD000282ED0A7422CD2099B1B1B032B6E
:1022400006D16B461B7F013C2370A74222D2099422
:1022500005000894D8E79A0712D1244A19689142D8
:102260000ED1079A02940392139A39000192129A9E
:1022700000920A9A1EF06BFC040020000DB0F0BD25
:102280000023326813700A9A34681360F5E79C1EC5
:1022900030232370139B002B06D0180026F034FD4A
:1022A0000023201A874217D3069B002B05D0BC427F
:1022B00003D96B461B7E013C23703368059A9B183B
:1022C0001B1B0A9A013B1360D7E7A742E2D2002802
:1022D000BED1DFE7C2540133139AD25C002AF9D190
:1022E000069B0400002BE4D1E7E7C0467CA0020077
:1022F0001300144A10B50400934204D101222000B7
:1023000007F09EFC10BD104A934201D10322F6E76C
:102310000020072CF6D10D4A1A40062A0ED09A0743
:10232000F0D11A680A4CA24208D00A4CA24205D049
:10233000094CA24202D0094CA242E3D10A00072074
:102340001900DDE7989B0200A09B0200070080FFB8
:1023500090A20200C0AA0200909F020008C00200E2
:1023600003000F2010B5084003280ED816F0C4FD56
:102370000204090D180010BD0648002BFBD10648C9
:10238000F9E718001EF050FCF5E718001EF067FC96
:10239000F1E7C046A09B0200989B02000379044A23
:1023A000D35C002B00D183790248DB00C018704752
:1023B000FE2D0020B8A0020010B50400FFF7EEFFCC
:1023C000227903680249034808F0D0FA01F002F8C4
:1023D0004E210300FCB60200002803D0012103793E
:1023E000014AD1547047C046FE2D002010B5FFF7BA
:1023F000D5FF034B4068C01A431E9841C0B210BDC0
:10240000B923000070B505000C00FFF7C7FF0023DB
:10241000A04209D0436828009847044A2B79A41A9F
:10242000034AE410D4540123180070BDB8A0020080
:10243000FE2D002070B5150004001EF025FE2A00B8
:10244000024920001EF0DAFD70BDC0466710020090
:1024500070B543790D000024032B06D9836A074C1D
:102460009200E41AC369D358E41803211EF0FBFD5F
:10247000447024120570847070BDC046FD7F00005A
:10248000F7B500230400617183608371E26003612A
:1024900001330F0015004361032906D80121836928
:1024A00049429A00C06926F009FC0023A362236216
:1024B000AA8BEB8BD218002A00D10132384E2000B3
:1024C00031001EF09BFD2A8C310020001EF096FD8D
:1024D000E3682000197D1EF0BFFDE3682000997DB0
:1024E0001EF0BAFDE3682000197E1EF0B5FDE3681A
:1024F0002000997E1EF0B0FD042F27D1636A226A66
:1025000031009A1A20001EF079FD3100EA8920007E
:102510001EF074FD3100AA8920001EF06FFD002618
:10252000AB8C9E4217DBFF2120001EF0ADFD042F77
:1025300035D1EA8A2B8B0237D31800930023009AF7
:1025400093422CD0AA8C0021019223E0022120008A
:102550001EF074FDD9E7AA6AF300D3181A78032A8B
:1025600003D1997820001EF08FFD0136D8E70126AF
:10257000A86ACA008218507830420AD05088834234
:1025800007D15268D200606B99003A430A50013378
:10259000D5E70131019A9142E9DB0222F2E7F7BD6A
:1025A0003D100200F7B5234B0500A8331B680191CD
:1025B000022B0DD847698F420AD2836A0269CF1B6A
:1025C0009C1A3B00234304D1AB6A2B61019B6B61D6
:1025D000F7BD062F01D90F2C18D900941F2C01D953
:1025E0001F230093009B00269C4203D83E00032F2C
:1025F00000D90326012128001EF020FD009A730156
:1026000013430370009BBF1BE41ADAE70A4B3E003A
:102610009F4200D91E00022128001EF00FFD7022EB
:1026200033091340F03A2243134303704670009479
:10263000E8E7C046902E0020FF07000070B50D00AF
:10264000012104001EF09EFD0E2D14D00F2D17D079
:1026500010210D2D10D0172120001EF015FD032292
:10266000A36A042103339343A36220001EF0FBFC02
:10267000044B036003E0112120001EF005FD70BD36
:102680001221F9E7B0AE0200F8B505000C00171EE4
:10269000194E1ED111001EF075FD80231B021C4235
:1026A00006D12200352132402800FFF7D1FEF8BDC7
:1026B000280032211EF0E8FC280032211EF0E4FC44
:1026C000280032211EF0E0FC322128001EF0DCFC44
:1026D000E7E732000A404621FFF7BAFE80231B02DB
:1026E0001C4021004C1EA141C9013943C9B2280038
:1026F0001EF0CAFCDBE7C046FF7FFFFF10B50CF001
:1027000081F9044917F07EFA16F022FE23F0F7FC57
:10271000014810BD00007A445CA4020010B50CF022
:102720000DF9002801DD23F0EAFC014810BDC04688
:102730005CA4020010B5040008000CF0FFF864105F
:102740002018034C400020400124204310BDC04607
:10275000FEFFFF7F10B50CF0F1F8002801DD23F03B
:10276000CAFC014810BDC0465CA4020010B523F0AD
:10277000DEFC034B400018400123184310BDC04647
:10278000FEFFFF7F10B523F0CEFC034B4000184046
:102790000123184310BDC046FEFFFF7F10B50400A3
:1027A0000C2022F0ABFF034B4460036001235B422B
:1027B000836010BD80A1020010B51C0002AB1B7825
:1027C000002904D0002B02D10E4807F0F1FBA242F1
:1027D00007D1824214D003000B490C4808F0C6F818
:1027E00006E0824206D9121A0949084808F0BEF8E4
:1027F00000F0F0FD844203D2030022000549ECE71B
:1028000010BDC046602103008921030084B6020088
:10281000C2210300F4210300F0B50025170087B0A2
:102820000C9C0D9E03900491059302950195059BC8
:102830009D4206D1019B039A93423CD2224807F065
:10284000B7FB039B9D4211D263889B05F6D4019B85
:10285000049A01330193AB00D058FF2263881340E0
:10286000012B22D10CF0A8F9307015E00623218845
:102870000022C900194338000EF0BAF900280FD120
:102880006388DB0506D522881049114808F06EF8E8
:1028900000F0A0FD63683360013508340436C6E7F4
:1028A000029B406801330293D7E7022B01D10CF061
:1028B00045F83060F0E73B68029ADB089A4201D2A3
:1028C0000448BCE707B0F0BD3A220300232203000E
:1028D00084B602005B220300030010B50548002BFC
:1028E00003D121F04CFE00F075FD096821F04DFE8A
:1028F000F9E7C04648B6020010B5034809680BF076
:1029000071FF024810BDC046D4BA02005CA40200A8
:1029100070B506000D00002814DD002907DD1548FC
:1029200016F092FB0124864209DC002407E0010036
:10293000C020000616F088FB01248542F5DAE4B2D7
:10294000200070BD002907DDC020000616F07CFBCA
:1029500001248642F3DBE8E70024A042F0D0010026
:10296000044816F071FB0123854200DB231CDCB216
:10297000E6E7C046FFFFFF3F10B50400431C02D04E
:10298000024808F051F8024B1C6010BDB82E002020
:102990008C2E0020014A024B9A647047B82E00200A
:1029A000902E0020014BD8607047C046902E00202A
:1029B000034B82B0D86801ABC01A02B07047C04662
:1029C000902E0020014B18617047C046902E0020C9
:1029D00010B54E21024821F0D8FD00F0FBFCC046A6
:1029E00094B5020007B5054A01ABD1681269CB1A4C
:1029F0009A4201D8FFF7ECFF07BDC046902E002099
:102A0000F0B585B005001600080003AB02AA01A9C5
:102A10001FF083F80398364FB84209D0032807D037
:102A20000BF08CFFB060002804D1324807F000F9A9
:102A30000123B3600198B84229D10024B368A342AE
:102A400000DC6C1E0298B84225D1B368002B47DD2C
:102A50002800002C2ADA641901D5B368DC17002895
:102A600034DA401901D501204042B368002B00DA66
:102A70000130B368002B2DDDA04200DA2000013BBD
:102A8000706058425841C0B2346005B0F0BD0BF0E0
:102A900055FF0400D6E70BF051FFB368002801DBB7
:102AA000DA0F8018002CD6DB002B03DDA542D6D22E
:102AB0002C00D4E7002BD2D0A54200D86C1E0028F1
:102AC00004DA4019D4D501204042D1E78542D0D262
:102AD0002800CEE7002BD2D0A042D0DD601CCEE78C
:102AE000002C01DA0020B6E700208342E4D1C0E7E1
:102AF0005CA402007F220300F0B5060085B0170039
:102B00001B2805D10A9A974209D0002005B0F0BDD4
:102B100019281AD01C281AD00A9A0A9717001A00E6
:102B20000B0011000A9A0192BA4200D901971D00C8
:102B30000C0000230093009B019A934209D10A9B49
:102B4000BB4220D0E1D30120E0E71A26EAE71D26A8
:102B5000E8E70295039401CD02CC0BF09DFE00281E
:102B600002D0009B0133E5E71B2ECED0039B300043
:102B70001A68029B196807F063F8044BC01A4342B5
:102B80005841C0B2C2E71A2EDDD1BEE7A09B0200B9
:102B9000F0B51E0085B0039018680D0017000BF00B
:102BA000E5FD7368019002930024022F0ED90123E2
:102BB000B26829000BF09AFF0400032F06D0290009
:102BC0000123F26801980BF091FF0500A54202D89D
:102BD000084807F02DF8039AA3000299D0580BF08B
:102BE0005BFE002801D10134F0E70120640020439E
:102BF00005B0F0BD99220300F8B5224E356868682B
:102C000001281DD9AA68431ED15C0A2918D1002BBE
:102C100003DD591E545C0A2C13D11C00844202D2DD
:102C2000115D20290FD0002B0FDC1218023AE31A95
:102C300014789B083A3C614261415C18002C11D128
:102C4000F8BD0B00E3E70134E8E7611C8842ECD1F2
:102C5000591E0029E9D00139575C0A2FF0D0202FE6
:102C6000F7D0E2E7084F04223900280020F06FFB7C
:102C70000421380010F02EFB3369013C043333612A
:102C8000DCE7C046A8020020167C030010B5202215
:102C90000021024826F012F810BDC046F02E002098
:102CA000084B10B54268186000209860187501380C
:102CB000D86008005A601A61996123F013FAFFF78F
:102CC0009BFF10BDA8020020F8B503780400002B7C
:102CD0001DD00F4E306E002804D0210026F00AF8D7
:102CE000002814D0200026F00FF8471C380022F0EE
:102CF00012FD051E0BD03A00210025F0C4FF054B44
:102D0000054A1968043B99609A42FAD13566F8BDC4
:102D1000902E0020082F0020EC2E0020F0B5B74C9C
:102D200002002068A568436885B00193002D00D09B
:102D3000FDE0531E042B11D8019B61688B4200D12A
:102D400095E0012A00D12AE1022A07D123696268AD
:102D5000934200D94DE10122524288E0032A00D17A
:102D600085E0042A00D12FE1052A00D107E1062AD7
:102D70000ED12369019A9342AD416D42002DEADDE7
:102D80002368290098682369C01810F0A3FA1FE08F
:102D90000B2A21D1019B2269991A20F098FB236804
:102DA000019A5B689A4204D913002269981A10F0BC
:102DB000C9FA2268236951689068C91AC01810F0CE
:102DC00089FA236858682369C01A401B10F0A8FAD2
:102DD00023695D192561BEE70E2A13D1E368002B34
:102DE000B9DB013BE3606268019B991A20F06FFB3D
:102DF000E368002B18DB1633814A9B00D3189968CF
:102E000020680FE0102A16D1E368062BA3DC5D1CB6
:102E10007B4A17339B00D318996800299BD06368BD
:102E2000E560436020F018FB63682269D61A2268C7
:102E30005568ED1A0AE0152A0CD1236962686168A9
:102E40009A1A20F04CFB236962689E1A0127002E13
:102E50002FDCA4E70D2A0DD16A4823F043F920683E
:102E600020F0DFFA6368C018FFF72EFF0022100081
:102E700005B0F0BD01231B2A62D0082A01D07F2AA9
:102E800020D121696268914200D864E700238668F6
:102E9000B618F75C202F13D101339F188F42F8D357
:102EA0000126032B00DD0336891B320020F017FBBF
:102EB0000127300010F034FA23699E1B266178E068
:102EC0000126F1E7092A28D1636822698068D11AAE
:102ED000C0184D4A03AB09F085FC061E00D13AE745
:102EE0000027431C0BD1A06923F0FCF8636822691A
:102EF000D11A22689068C01810F0ECF94FE72369E6
:102F00002068F918039B01375A1C03921A7820F0A5
:102F1000CCFABE42F3D1350041E71300203B5E2BD3
:102F200000D918E7216920F0C9FA012537E7012DFA
:102F300008D104234F2A03D002235B2A00D00023A8
:102F4000A36008E7022D20D11300303B092B03D8E2
:102F500003232275A360FEE60023A360412A00D16B
:102F600052E7422A00D139E7432A00D101E7442A37
:102F700000D1EBE6482A12D0462A00D0EBE6002723
:102F8000019B22693E009D1A0EE00023032D29D1EA
:102F90007E2A24D1227D312A01D0372A0DD1002565
:102FA0002F00236962689E1A0023A3609E4200DD01
:102FB0007FE7002F00D1E1E6F1E61100FB2534396F
:102FC0002942DCD0332A0AD12169019B8B4206D9E0
:102FD000012220F084FA002501272E00E4E70025D5
:102FE0002F00FAE7042DABD1462AC8D0482AD6D004
:102FF000A6E7002501262F005BE7C046A8020020B7
:10300000902E0020161F0300D4BA0200044B8860E3
:103010000B60044B08004B600023CB607047C04638
:1030200080C00200DF1A020013B50400080001A9E5
:1030300001F032FB002C03D0012C07D0002004E06B
:10304000019B0548002B00D1044816BD019921F0D1
:103050003EFA40002043F8E7A09B0200989B020044
:10306000F0B585B00400080003A9150001F014FBB9
:103070000600002D07D10300039A2F49200021F0FC
:10308000F2FD05B0F0BD039B0200C3180021012032
:103090000193019B934206D82727002900D0053FC2
:1030A0003A0026491AE01378272B08D0223B5D42CC
:1030B0006B41DBB20132002BEBD02727F0E7002376
:1030C0000100F7E7300021F0CFF90500300021F0D2
:1030D000E6F90600AF4205D13A001949200021F077
:1030E000C2FD14E017495C2D0ED02B00203B5E2B57
:1030F00001D82A00D5E714490A2D05D013490D2D12
:1031000002D0092D0CD11249200021F0E4FC019BD2
:10311000B342D7D83A000949200021F0A4FDB0E716
:10312000FF2D02D82A000B49D8E70B4B2A000B4988
:103130009D42D3D90A49D1E7F2220300F8220300C5
:10314000F7220300FB220300FE22030001230300F9
:103150000423030007230300FFFF00000E230300E6
:1031600015230300F7B51F0008AB1D782A4B0C0090
:103170001600984207D12B003A0031000BF0B6FC44
:1031800024182000FEBDFB0714D57F100197019B7A
:10319000A219002B2BDA00203F260127013A944286
:1031A0001AD9002800D00193002DEAD11B491C48F0
:1031B00021F050F901A938000BF0FEFB0028E6D100
:1031C000380022F00CFA17490200174807F0CEFB2E
:1031D00000F000F90A00E2E71178B143802901D03C
:1031E00038000133511E002BF4D11400C9E700212F
:1031F0003F260120944204D3002900D001931400FB
:10320000D2E7002BBDD001342178B1438029FAD018
:10321000013B0100EEE7C046C0AA0200D82203002D
:1032200078B30200B022030084B60200F0B587B084
:1032300006000D0017000BF099FA02A904003000F7
:1032400001F02AFA0600042F4FD1AB0736D1284BE4
:103250002A689A4232D105AB04AA03A928001EF0BD
:103260005CFC059B234FBB4204D0032B02D02248B9
:1032700006F0CCFE039B3500BB4207D00122310093
:1032800000922000029AFFF76DFF0500049BBB42ED
:1032900011D00122310000922000029AFFF762FF54
:1032A00006000E20B54204D8721B290020001EF033
:1032B0003BFE07B0F0BD029BF618F2E70023029A2E
:1032C000009331002B002000FFF74CFF0278012112
:1032D00053B2002B02DA40231A4203D1012201F03B
:1032E000A1F9E6E701315B08F6E70020E1E7C04617
:1032F000C8A302005CA40200DB20030010B5040098
:10330000082022F0FBF9024B4460036010BDC04668
:103310008CA3020070B504000D00104921F0DBFB06
:103320006968012220000BF039FA0D4E20003100AF
:1033300021F0D1FBA968012220000BF02FFA310007
:10334000200021F0C8FBE968012220000BF026FADA
:103350000449200021F0BFFB70BDC0461C230300C0
:10336000D62003008C4B030070B5060010200D0022
:10337000140022F0C3F9034B466085600360C4600B
:1033800070BDC046C8A30200C46005614661876184
:103390004146C161494601625146416259468162D6
:1033A0006946C1627146816000490847B533000033
:1033B0000020C046024B9A68026098600020704767
:1033C000902E0020024B9A6812689A607047C0469F
:1033D000902E00200E4A9368002B01D123F019FB98
:1033E000196858609160181CC46805694669876946
:1033F000C1698846016A8946416A8A46816A8B4664
:10340000C16A8D4681688E4601207047FEE7C0463E
:10341000902E002010B5024921F05DFB10BDC04682
:1034200023230300F8B5124A0D00124B12499042B3
:103430001AD0C4688C4203D0012428602000F8BD53
:10344000406B002812D004689C42F0D10600002492
:1034500047680836BF00F719BE42EFD2290001CEF7
:10346000FFF7E0FF2418F7E70024E7E70400E5E7AB
:10347000A89C0200909F02006D350000F8B5050081
:103480000C00AB68002B0AD0344AE168914206D0A8
:10349000E358002B03D00422EB681A60F8BDA06B40
:1034A000002822D06B680022D9000623043019437B
:1034B0000DF09EFB021E18D02B7C002B06D042681C
:1034C0000020EB68296805F0ADFEE7E72B68181EC1
:1034D00007D02249E6688E4203D021498C4200D0B1
:1034E0001869EB6852682100EDE72B68002B14D1B6
:1034F000636B002BD2D01B4A1968194F1C009142F4
:1035000008D15E68184B0834F618B600A619B44204
:1035100017D32468BC42B4D1C0E72A7C002AE7D183
:103520000E4AE1689142E3D00D4A9442E0D0186916
:10353000EA68696805F0D0FEEB681B68002BD7D0FD
:10354000ACE72168B94201D10434E0E72800FFF775
:1035500095FFEB681B68002BF6D09FE76D350000E8
:10356000A89C0200909F0200FFFFFF3FF0B58FB0C4
:103570000E0005A9019202930700FFF753FF051DF6
:10358000AD00280022F0BAF80400002180C022F02B
:1035900085F92A002000103A1030002125F08EFB1A
:1035A000012E05D1029B1B680393042B00D189E0F7
:1035B00007AD08220021280025F080FBF22200231D
:1035C00009A8FF324260E63AFF3A39008260C560DE
:1035D00003740993FFF752FF079804282FD1059829
:1035E000029BC568019A3100A847206120000BF0BA
:1035F000BDF8874266D1EA220023FF32390009A8CC
:10360000089307930B9309940A92FFF737FF079BE0
:10361000002B57D00198304336D107AA010020F083
:10362000DDFE0500294B9D424CD0280021F0D7FF3C
:1036300027490200274807F099F9FFF7CBFE002839
:10364000D4D0019A324306D106AB0121069705F08A
:10365000CBFD0400CAE7019B5C00A4190134A4005F
:10366000200022F04BF8221F0390029980C025F021
:103670000AFB711C039B019A286805F0B5FD040044
:10368000039822F06AF8B1E7019B5D00AD1902359D
:10369000AD00280022F032F82A000700079B0299AB
:1036A00003600393089B083A4360083025F0EBFA67
:1036B0003A000199300020F091FE0500380022F018
:1036C0004CF8AFE720000FB0F0BDC0465CA402008C
:1036D0007923030084B60200F0B5146889B017009E
:1036E000002C0ED1436803AD82686960596B039268
:1036F000AC60EF602C74002905D111492800FFF758
:10370000BDFE09B0F0BD0F4B0A689A4210D14B685C
:1037100008310E000193019B9C42EED0A300F158AA
:103720002800FFF7ABFE3B68002BEAD10134F2E73B
:103730002800FFF7A3FE3B68002BE2D1DDE7C0467F
:10374000A89C0200909F020010B54A68014921F030
:103750008AFA10BD73240300F0B58BB004000E008C
:10376000150000210822684625F0A8FA142200213D
:1037700005A825F0A3FA202307936B460594089328
:10378000E023002D02D0042D11D1E623FF33216860
:1037900005A80693FFF772FE0221009F042F0FD1A8
:1037A0002A00310020690BF051FA0BB0F0BDFC2368
:1037B00021685B0005A80693FFF760FE0321ECE794
:1037C000381EF2D002AB002202940396049505F055
:1037D0000BFD042DE9D00148E7E7C0465CA40200D8
:1037E000F0B5204B8BB08200D35803AF0C000822F9
:1037F000002106003800019325F060FA019B05AD19
:103800006B601423AB600023280021680594EF60EF
:103810002B74FFF733FE0398042805D1216930008B
:1038200005F070FC0BB0F0BD00280AD0210020F09C
:10383000CDFD022EF6D10BF0ADF84400012020435F
:10384000F0E7022E01D00020ECE7E2232168FF33ED
:1038500028006B60FFF712FE3B68002BF3D1640079
:10386000ECE7C04624A60200F0B506008BB00C00C1
:10387000171E3ED0FB235B000822002103A8019302
:1038800025F01CFA019B05AD06930823079303ABB3
:1038900008930023216828002B740594FFF7EEFDA0
:1038A000039B002B09D1002F07D1F733FF33216889
:1038B00028006B60AF60FFF7E1FD039804281DD17D
:1038C00020690AF053FF164BC2689A4214D1002FA8
:1038D00007D02368586821F0EEFE0100300021F087
:1038E000FAF880223A43216930000AF057FF0BB002
:1038F000F0BDFA23FF33BFE73A00F4E7002805D014
:10390000210020F063FD00220100EDE7200021F0FE
:1039100066FE230002000349300021F0A4F9E6E727
:103920002DA800002823030070B504000D000B49EA
:1039300021F0D1F86968002220000AF02FFF084921
:10394000200021F0C8F8A968002220000AF026FF14
:103950000449200021F0BFF870BDC04631240300A7
:10396000D62003007E24030010B5C468002C06D1C5
:1039700042680449044806F0F9FFFFF72BFDA04711
:1039800010BDC0463A24030084B60200F0B5154BC2
:1039900089B016008200D5580C000C2200210700C7
:1039A000684625F08BF9182303A84560836000253D
:1039B0006B462168C36003940574FFF75FFD009BAD
:1039C000042B06D132002169380006F039F909B01C
:1039D000F0BD181EFBD06A4629000120029620F097
:1039E000FDFCF4E79CA40200F0B51700EE228DB0B8
:1039F00004000393002307A852004260CD3A05ADAE
:103A0000FF3A0E0021688260C560037405936B6005
:103A10000794FFF733FD0598002809D1200021F015
:103A2000DEFD0C4902000C4806F0A0FFFFF7D2FCB7
:103A3000039B042806D13A003100206905F0D4FB2D
:103A40000DB0F0BD009332003B0069681FF07BFDB4
:103A5000F6E7C0465D23030084B60200F0B50D0012
:103A600085B001A907001600280002AA1DF060FA1F
:103A70000023019902988B422CD13C2021F050FE6A
:103A80002A4B019A03602A4B04008360294B47604C
:103A9000C360294B0361294B4361294B8361294B47
:103AA000C361294B0362294B4362294BC362002A3D
:103AB00006D0029B1968096B0163012A18D9456376
:103AC000A66303A92000FFF7ADFC012813D9214804
:103AD00006F06EFA9A008258D468002C06D152681B
:103AE0001D491E4806F042FFFFF774FC0133C2E790
:103AF0001B684363E4E7A36B0022181D18490DF00F
:103B000077F8051E0ED0032243681A400AD11968BF
:103B1000144B4968994205D1031D012112481EF03A
:103B20004AF86860200005B0F0BDC046E8A5020074
:103B3000693800006D350000E9390000E137000008
:103B40008D3900002B1B020059370000A91C020010
:103B50005F1C020003240300DA23030084B6020082
:103B60008E0F00004502000070A5020037B50D0061
:103B70001C00002311000093012203332800FEF7EC
:103B80001BFE012D04D0032D06D0074806F010FAC5
:103B900020680AF0EBFD3EBD206800F065FDA268DC
:103BA0006168FFF75BFFF6E7572403001FB5064B7C
:103BB0000A0001934B6802938B68010001A80393EC
:103BC00005F0BCFB05B000BDACA50200F8B50D00CA
:103BD00003261449144AA8421ED0030033401DD1C5
:103BE00004688C421CD1406B002816D003689342B5
:103BF000F1D1040047680D4B0834FF18BF00E719E6
:103C0000BC4201D32068E4E729002068FFF7DEFF0B
:103C1000002802D10434F3E70120F8BD0020FCE7BE
:103C20001800FAE7E8A50200909F0200FFFFFF3F9F
:103C3000F0B585B00500019108008B0717D10B681E
:103C4000134A93420BD10123029301AB0393002447
:103C5000029E039FB4420DD10E4805B0F0BD0E4A3E
:103C6000934204D103AA02A91DF062F9EFE70B48C1
:103C700006F09EF9A300F958094B994206D0280096
:103C8000FFF7A4FF002801D10134E3E70548E4E78A
:103C9000E8A50200989B0200909F0200A123030068
:103CA000A89C0200A09B020010B5830703D1054B1E
:103CB00002689A4202D0044806F07AF9FFF7B8FF8A
:103CC00010BDC046E8A502003A230300014B586826
:103CD0007047C046902E0020014B18687047C046C0
:103CE000902E0020F0B5194E87B0336805000020F3
:103CF0000C00019321F078FF30600090206820F0E4
:103D00005EFB019B07003360114E022D03D0A068BB
:103D10000AF02CFD0600210063680831A81E0393F9
:103D2000FEF700F8009B04900593002203AB0321EB
:103D3000300005F059FA074B04009F4203D0010000
:103D400038001DF0E8FE200007B0F0BD902E0020E6
:103D5000E8A502005CA40200F8B5032605000700F0
:103D60003540022D16D10E4B0340062B12D0FF23F7
:103D7000DB05C418B443201C002115F0A1FA00286B
:103D800006D080231B06E418B443064B2C43E718E7
:103D90003800F8BD3800FCF70BFB0700F8E7C04619
:103DA000070080FF000080801FB5694605F012FB08
:103DB0000400200005F070FB002802D1044804B084
:103DC00010BD0AF0F9FE0028F3D10248F7E7C0461B
:103DD000A09B0200989B02001FB5694605F0FAFA05
:103DE0000400200005F058FB002802D1044804B06C
:103DF00010BD0AF0E1FE0028F3D00248F7E7C04604
:103E0000989B0200A09B020010B50AF033FD034B03
:103E1000002800D1024B180010BDC046A09B020034
:103E2000989B020037B50AF089FD01AB7F2806D8C0
:103E3000012118700122180000F0F4FB3EBD1E495C
:103E4000820988420BD8402149420A431A703F2216
:103E5000024080204042104358704231EAE7174C3C
:103E6000010BA0420ED82024644221431970802106
:103E70005F344942224020400A43014399705A70FE
:103E80000321D7E70E4CA04212D81024850C6442BF
:103E90002C431C703F258024294064422A4028403E
:103EA00021432243204359709A70D8700421C1E7FE
:103EB000044805F0BDFEC046FF070000FFFF0000FC
:103EC000FFFF100080240300F0B589B0019202903A
:103ED0000D0000223049019803930CF089FE0090F8
:103EE000002801D043680093029B012B10D00026CC
:103EF00034000196029B9E4220D0009B002B3BD1B8
:103F00002F68002C3ED12C68019701360435F1E76B
:103F1000002404A9286805F05DFA270002900298A1
:103F200005F0BAFA051E0CD1002C07D122001B495E
:103F300001980CF05DFE00281BD04468200009B0F9
:103F4000F0BD009B2E00002B04D02900180020F0AB
:103F50003DFA0600002C09D03A003100039805F024
:103F60006FFE0F4B984201D025003E002C00370019
:103F7000D5E70C4805F05CFE2968009820F026FA89
:103F80000700BEE7019A3900039805F059FE044B7B
:103F90009842BAD1B7E7C046561300002E11000070
:103FA000A09B0200A124030037B501A9050000F081
:103FB00091FF1E4B04002B40062B05D0AB072AD1E6
:103FC0001B4B2A689A4226D10199200020F07FFAE3
:103FD0000190012822D1207843B2002B04DB01207C
:103FE00023785B0018433EBD7F23013418403F3BDC
:103FF000034208D13F22237819009143802905D03C
:104000001CF012FEEFE798435B10F1E780011340CC
:1040100001341843EFE7019B012BE0D0019A0549D9
:10402000054806F0A3FCFFF7D5F9C046070080FF5E
:1040300090A20200BA24030084B60200F0B5140076
:1040400087B0029003910022234920000CF0D0FD9C
:1040500000220500214920000CF0CAFD01230400C4
:10406000049305931E4F002D07D068681D4B98429E
:1040700003D004A900F02EFF07001B4E002C07D030
:104080006068184B984203D005A900F023FF060092
:104090000024029B154D9C420AD10023059A0193EE
:1040A00000933100280007F085FB0E4807B0F0BDF3
:1040B000002C07D00023049A0193009339002800B4
:1040C00007F078FB0399A3000022C95828000AF0E2
:1040D00065FB0134DDE7C04686150000961100003F
:1040E000197C03005CA40200E24C0300D4BA020075
:1040F0007FB50D4D0400A84213D00C4E01220100E3
:1041000030000AF04BFB0A49300020F0E4FC0423A5
:104110000293084B0394DB6902AA0321064801932A
:104120009847280004B070BD5CA40200D4BA020015
:10413000E24C030080D302006CA7020010B504001B
:1041400086B06A4602A8102103F0BAFE01222100BF
:1041500068460AF023FB02A9024800F02DFA06B0D7
:1041600010BDC04690A2020070B50C68E30726D4CB
:10417000A30703D1174B22689A4220D0012820D9E7
:1041800048680AF0DBFB060020000AF03BFC051C37
:10419000300016F02BF8011C0F4818F0ADFE011C82
:1041A000041C281C15F02EFD18F010FB211C15F026
:1041B00039FB032302249843084B0443E4182000EE
:1041C00070BD20000AF01EFC18F000FBFDF73AFF5E
:1041D0000400F4E77CA00200000020410000808081
:1041E00030B50B0085B01400012802D9094805F04C
:1041F000DFFE09480121C2680192019D0022A84703
:104200002200039003A9012009F06EFD039805B078
:1042100030BDC0460E25030008C0020013B50400DF
:10422000080000F021FA6A460100200005F054F869
:10423000009B0248002B00D1014816BDA09B020044
:10424000989B020037B50024022800D98C68486882
:104250000D6800F009FA0A4B0100002C00D0094B50
:1042600028006A4698470098002806D00199040063
:10427000002902D004F00CF8040020003EBDC04626
:104280003D930000D992000070B5040008001500AD
:1042900000F0EAF92A000100200005F077F8014853
:1042A00070BDC0465CA402007FB50B00012803D19D
:1042B000002118680AF08CFA102102A81FF063F898
:1042C0000C4902A81DF001FC032804D10A4820F083
:1042D00056F9FFF77FF8039B0193002B03D10428C5
:1042E00001D10648F3E702A9054800F065F907B0D7
:1042F00000BDC046C3290300F0B302004CB2020067
:1043000090A2020010B505F09FF8002804D10348E0
:1043100020F035F9FFF75EF810BDC046D0B50200B9
:1043200010B5022803D00549054820F093F84A68E3
:104330000B20096805F084FC10BDC046F42403007E
:10434000E0B40200F8B50E0000280FD10400294B9C
:104350001D680021080021F011F800270600002D3B
:1043600034D10025002C40D13000F8BD0868830707
:1043700015D10268204B9A420DD121F029FE05008B
:1043800030680AF0F3F91D4BC26800249A42E0D16C
:1043900034680434DDE71A4903008A4202D00AF087
:1043A000E5F903009D6B002DEAD0164B2A689A426E
:1043B000E6D00025E4E7EA68FB009958002904D01C
:1043C000042902D0300009F02DFC0137AB689F4270
:1043D000F1D3C6E7A268EB009958002904D004295C
:1043E00002D0300009F01EFC013563689D42F1D314
:1043F000BAE7C046902E002080D302006D35000041
:10440000E8A502004CD00200F8B5070008680C00CF
:1044100021F09FFE050060680AF0CEFB0600022F27
:104420000AD9A0680AF08AFA0200310028001DF0BB
:10443000E5FC1CF0F9FBF8BD004AF6E740420F002E
:10444000032230B502400121002A04D1084C036840
:104450000D00A3420AD00B0003401D1E06D1002A06
:1044600004D1036803481B1A5D425D41280030BD3A
:10447000A89B02007CA0020010B50400FFF7E0FF3B
:10448000012300280AD102332340022B05D105481D
:104490000440063C601E8441E0B203000120184045
:1044A00010BDC046070080FF044B88600B60044BC2
:1044B00008004B600023CB607047C04680C00200FC
:1044C0007721020010B50AF051F9054B42689A4273
:1044D00000D1044B0449054806F048FAFEF77AFF7C
:1044E000BF020000130200003925030084B6020059
:1044F000F7B504000E00019301208B180A0000217B
:104500000093009B934212D82725002900D0053D37
:10451000224F2A003900200020F0A5FB009B9E427C
:1045200014D32A003900200020F09DFBF7BD13783A
:10453000272B08D0223B5D426B41DBB20132002BBE
:10454000DFD02725E4E700230100F7E73278954222
:1045500005D12A001249200020F085FB1AE01149FC
:104560005C2A14D01F2A09D97F2A15D0019B002B61
:1045700002D053B2002B07DB3900ECE70A490A2AC4
:1045800005D00A490D2A02D0092A05D10849200080
:1045900020F0A1FA0136C1E70649DCE7F822030062
:1045A000F7220300FB220300FE2203000123030085
:1045B0000423030007230300194B70B506000D0008
:1045C00098420ED14968A8680BF0B8FB041E08D0C9
:1045D00028001EF0FAFEE000002306242B60204392
:1045E00070BD102021F08AF86968040081600660BF
:1045F000A8680BF085FB6B686060591C2B689942BA
:1046000009D1AB68E3600023E268A168200053543D
:10461000AB602B60E4E7A86821F08EF8E060F2E779
:1046200090A2020070B504000D00002A05D00BF026
:10463000B7FBC3000620184370BD0BF07FFB0028BA
:10464000F7D12A00210002481DF06EFCF4E7C046B5
:1046500090A2020010B50A00010002481DF064FC9F
:1046600010BDC046C0AA0200094B10B50340062B7E
:1046700001D1C00810BD830708D1064B02689A42D9
:1046800004D18168C0680BF08BFBF3E7FFF71AFFDA
:10469000070080FF90A20200064B10B50340062BD6
:1046A00003D1C00821F00CF810BD8368C0680B600E
:1046B000FAE7C046070080FFF0B50F00002589B07B
:1046C000110006001C003800009503232A00FEF7A5
:1046D00073F80E20AF420FD0012F0FD102AA102184
:1046E00004A803F0EDFB216802A82A000AF056F89E
:1046F00004A93000FFF760FF09B0F0BD2068830710
:1047000022D1164B02689A421ED104A9FFF7C4FFBA
:10471000134B050020680340062B13D1C00820F07E
:10472000C0FF0400002C04D1049928000BF0E8FA23
:1047300004001020049F20F0E1FF06608760C56040
:104740004460D9E74468EDE704A901220AF0B0FA11
:10475000002205990498FFF765FFCDE7C0AA020083
:10476000070080FFF0B58DB00400039109F0FEFF53
:1047700004A906002000FFF78FFF039B01902F483C
:104780009A0705D11B6883420AD02D4A934207D06D
:10479000C36800220293012103AB029CA04703904F
:1047A000002406AA05A903980AF06AF92500059BCA
:1047B0009C420ED32900002508A81EF0F5FD0A9C96
:1047C000059B9D4221D308A93000FFF7F5FE0DB0EF
:1047D000F0BD069BA700D85909F0C8FF864202D059
:1047E000184805F0E5FB002C01D0049BED18069B52
:1047F000D859154B0340062B05D1C00820F056FFB1
:104800002D180134D3E78068FAE7002D06D0200088
:10481000049A019924F037FA049BE418069AAB0035
:10482000985807A9FFF738FF079A0100200024F0E5
:104830002AFA079B0135E418C2E7C04608C0020007
:10484000909F020067290300070080FFF0B58BB03E
:10485000049008680D000692079309F087FF060090
:10486000686809F083FF864202D06868FFF72AFE75
:1048700008A92868FFF710FF040009A96868FFF776
:104880000BFF089A0590A3180393049B2700022BA3
:1048900019D9AB681C498B4206D001213000009128
:1048A0002100FEF75FFC0700049B032B0BD0EB6895
:1048B000154A934207D00122210000923000089A45
:1048C000FEF750FC0390039B059AD91B069B38000A
:1048D0000093099B1DF009FB002806D1079B0138B6
:1048E000002B0CD0094805F0A3F9094B9E4208D1D2
:1048F000010020001FF0DCFD4400012020430BB02C
:10490000F0BD041B6400F8E75CA402005329030017
:1049100090A20200F0B5070087B008680D0009F00A
:1049200025FF04A906002868FFF7B6FE05A90400C4
:104930006868FFF7B1FE03902000022F07D901231A
:104940000093AB68049A21003000FEF70BFC059A37
:10495000041B049BA418064D9C4205D8039924F01F
:1049600083F9002800D1034D280007B0F0BDC046F0
:10497000989B0200A09B020073B50D0006006946DB
:104980002868FFF789FE01A904006868FFF784FE24
:104990000100022E02D9084805F038FB019A009860
:1049A000064D824206D8801A201824F05DF90028AE
:1049B00000D1034D280076BD41290300989B0200D9
:1049C000A09B0200F0B58FB0079010680C00160095
:1049D00009F0CCFE0690012C31D0706809F0C6FEBB
:1049E000069B834202D07068FFF76CFD0DA97068CA
:1049F000FFF752FE0D9B089009930DA93068FFF751
:104A00004BFE0D9B0B900493079B012B1CD1049B29
:104A10005D1E01235B420A9300242700049B03943C
:104A20000593059B002B13D1039B002B23D1214B16
:104A3000069A0E209A4200D01F480FB0F0BD0723FF
:104A400009931E4B0893D8E7012300250A93E3E757
:104A50000B9B09995A190123089800931DF045FAF8
:104A6000002816D1039B002B19D1079B002B09D1DD
:104A70002F00049B5C1E049B0134E21B934212D165
:104A80003068DAE7079B2C00012B0AD001232F00A6
:104A900003930A9BED18059B013B0593C1E72C008E
:104AA000F7E7039FE7E70B9B0698D9191DF03CFA3F
:104AB000C3E7C04690A20200B0AA0200BB290300CF
:104AC000F0B589B0049008680D0009F04FFE0700AA
:104AD000686809F04BFE874202D06868FFF7F2FC75
:104AE00006A92868FFF7D8FD060007A96868FFF740
:104AF000D3FD069A0590B3180393049B3400022B50
:104B000019D9AB681D498B4206D0012138000091AC
:104B10003100FEF727FB0400049B032B0BD0EB684E
:104B2000164A934207D00122310000923800069ABB
:104B3000FEF718FB0390079B0025002B12D1039B67
:104B40002000191B1FF0C3FC013045000120284341
:104B500009B0F0BD0599200024F086F8002808D19E
:104B600001353400079A039BA618B342F2D26D00B8
:104B7000ECE720001FF093FC0600F2E75CA40200C3
:104B800010B5010001481DF0C0FA10BDEF4402004D
:104B900010B5010001481DF0B8FA10BD0145020032
:104BA000F7B50600080001A9FFF776FD019B050097
:104BB000002B01D11348FEBD134B04009E4207D1C8
:104BC0000027019A631B9A4211D8002F07D1F1E701
:104BD0000E4B9E42F4D0019A631B9A4201D80C48B6
:104BE000E9E72078B04701340028F4D1E2E72078E3
:104BF00005F080FA002803D02078B047071ED9D0EE
:104C00000134DEE7989B02005DA1000075A1000061
:104C1000A09B020010B501000148FFF7C1FF10BDC5
:104C2000DDA0000010B501000148FFF7B9FF10BD7D
:104C3000F5A0000010B501000148FFF7B1FF10BD5D
:104C40000DA1000010B501000148FFF7A9FF10BD3C
:104C50005DA1000010B501000148FFF7A1FF10BDE4
:104C600075A10000F0B585B006000C00170009F032
:104C70007DFD694605003000FFF70EFD0600042F9C
:104C800023D1A30716D1124B22689A4212D101AA4E
:104C900021000098FDF7B4FE002802D10D4805F070
:104CA000B5F90199029A2800521A71181DF03CF9C1
:104CB00005B0F0BD002322000099280009F016FF7E
:104CC000335C01205B001843F2E70020F0E7C046A8
:104CD000C8A30200DB20030070B51D008EB00029C0
:104CE00000D174E018683B4C03002340062B05D02C
:104CF000830726D1384B02689A4222D10239012912
:104D000062D80AA9FFF7C8FC060028680440062CF0
:104D100015D1C00820F0C5FC0400002C04D10A996C
:104D200030000AF0EDFF040010200A9D20F0E6FCA0
:104D30002A4B85600360C66044600EB070BD446855
:104D4000EBE7012940D80122104210D04410210085
:104D50000AA81EF029FB0C9B0021220018000193D9
:104D600023F0ACFF0AA91D48FFF726FCE5E703A9DD
:104D700020F04CFC002805D0049A039917481DF038
:104D8000D3F8DAE7286809F0F3FE1021002800D0F4
:104D9000411006A81EF0F7FA0AA9286804F01AFBC9
:104DA0000400200004F078FB002801D106A9DAE70E
:104DB00009F0C4FDFF2802D9094804F039FFC1B247
:104DC00006A81EF040FBECE7064805F0F1F806489F
:104DD000B3E7C046070080FF90A20200C0AA02000D
:104DE000642503007D250300B0AA020073B504000A
:104DF000080001A91600FFF74FFC0500042E06D19C
:104E00000300019A074920001FF02DFF73BD0649DA
:104E100020001FF060FE0123019A29002000FFF707
:104E200067FBF3E7F22203004C570300F7B50200DB
:104E30001C4B05000C001A401E00062A19D10B401D
:104E4000062B04D1441A60426041C0B210E0C00891
:104E500020F027FC07002640062E0CD1E00820F0A9
:104E600020FC002F09D0002807D0874205D0002061
:104E7000FEBD4768EFE76068F3E769462800FFF783
:104E80000BFC01A905002000FFF706FC009A019B1E
:104E900001009A42EBD1280023F0E6FE4442604133
:104EA000D3E7C046070080FF084B07B50340062B39
:104EB00008D0830704D10268054B92699A4201D059
:104EC000FFF700FB01A9FFF7E7FB0EBD070080FF1E
:104ED0007D5400000A4B13B503400C00062B08D08C
:104EE000830704D10268074B92699A4201D0FFF709
:104EF000E9FA01A9FFF7D0FB019B236016BDC0466C
:104F0000070080FF7D540000F0B59BB00B900C00B3
:104F1000089210210EAA12A8099302F0D1FF089B53
:104F20009C4208D30B9A12AB13CB13C21B681360BD
:104F30000B981BB0F0BD21787D2911D1631C06931D
:104F4000089B621C934208D961787D2905D112A87B
:104F50001EF079FA069C0134E1E7B34804F068FEDC
:104F60007B2904D012A81EF06EFA0694F2E7089B83
:104F7000651CAB4243D961787B2904D112A81EF08D
:104F800062FA0695E6E72B007D2903D0212901D09E
:104F90003A291FD100252E001A78212A23D0002279
:104FA000059200211A7806913A2A31D15A1C5B7871
:104FB00006927D2B30D01300012208998B421ED21D
:104FC00019787B291FD101320133F6E7089A0133A2
:104FD0009A4214D01A787D2A03D0212A01D03A2A85
:104FE000F4D11E00D8E708995A1C914209D95A7881
:104FF0000592723A012A04D802339942D1D88B48DB
:10500000ACE78B48AAE77D29DED1013A002ADBD143
:10501000069A0693079205E0089B069A9342EED9FA
:1050200000230793069B1B787D2B01D0814895E7D1
:10503000002D47D000232878169305F067F82C0040
:10504000002823D0099B1B680A93002B01DD7A48B6
:1050500084E716AA310028001CF02FFF209A169B27
:10506000013A04009A4203D8744975481FF0F2F9D6
:10507000219A01339B009F580122099B52421A60DA
:10508000B4422FD26F4804F0C1FF0134B44204D2BD
:1050900023782E2B01D05B2BF7D1611B0122280036
:1050A000FFF7C0FA00220500010022980BF0A0FDD6
:1050B000002805D1290064481FF067FAFEF78AF935
:1050C0004768DDE7099B1B68002B01DA5F4845E76D
:1050D000209A013A9342C7D2013321999A00575836
:1050E000099A1360079B002B17D1059B002B00D159
:1050F00092E010AA102116A802F0E2FE059A3900EB
:10510000733A531E9A4110A8D2B209F047FB16A970
:105110004F48FFF751FA070002E0059B002BE8D14A
:1051200001235B420D931093079B002B00D1B0E04D
:10513000FDF758FC229B069A0293219B0799019345
:10514000209B16A80093099BFFF7DEFE16A81EF011
:1051500068F90026179B0400C3180A930378059387
:10516000B34213D03B4D1900280023F0B5FDB042E7
:1051700000D068E16678002E51D03100280023F07D
:10518000ABFD002800D060E10600059023782B2BB2
:1051900047D000252D2B02D0202B01D1043501341E
:1051A0002378232B02D1133B1D4301342378302B6A
:1051B00007D1059B002B01D13D330593002E00D173
:1051C00030360DAA0A9920001CF077FE037807906C
:1051D0002C2B04D10C3B1D43030001330793079B89
:1051E0001B782E2B06D1079810AA01300A991CF0C3
:1051F00064FE0790079B1C78002C07D021001648FE
:1052000023F06AFD002800D024E10400079B1B78EE
:10521000002B25D01148A1E67323059369E7059675
:10522000B4E70225BBE7C04691260300D22603005F
:10523000B9260300EA2603000E27030058270300BF
:1052400078B3020071270300B4B302008E27030075
:1052500090A20200D8270300DD270300ED270300FA
:1052600016A81EF0B2F8059B002B08D13800FFF7F6
:1052700003F93C230593002801D002330593002E47
:1052800000D1203606231D420BD0732C05D1734864
:1052900064E6079D2C002E00E8E7632C01D17048DE
:1052A0005CE6059B3D2B1FD05E2B1FD03C2B01D114
:1052B0003B3B1D433800FFF7C3F800282DD0632C7B
:1052C00050D026D8472C13D8452C26D2002C40D0BD
:1052D000252C22D0380020F082F9220003006149F9
:1052E000614805F043FBE9E64023E2E78023E0E77D
:1052F000582C53D0622CEDD1002303930D9B022236
:10530000029361230196009539000EA806F0AEFACB
:1053100020E6672C17D8652C1BD33800FFF7ACF8B4
:1053200000286CD0002C56D06E2C54D0472C3FD87F
:10533000452C41D2252C50D0380020F050F92200C5
:1053400003004A49CCE76F2C1AD0782C26D06E2C5B
:10535000C0D1002303930D9B019602930095612316
:105360000A22D1E7380009F0E9FA0D9B16A9087066
:10537000012201932B0000960EA806F01BFAE9E526
:10538000EB0602D580239B001D43002303930D9B56
:1053900001960293009561230822B5E700222300BD
:1053A00003920D9A173B0292019600951022ABE7EB
:1053B0002300653B022BBFD8380009F023FB109B6C
:1053C000220002930D9B011C01932B0000960EA856
:1053D0001FF004FCBEE56724EEE73800802409F0E6
:1053E00011FB234914F00EFC109B640002930D9BEB
:1053F0002C430193011C009623006622E7E7059BDE
:105400003D2B01D11B48A9E5002C01D0732C13D1F1
:1054100016A93800FFF75EFD109B0100169A002BBD
:1054200000DA1092109B9A4200D916930D9B0096B9
:105430000193169A2B009FE7380020F0D0F8220045
:1054400003000D494CE70134A0E633000234059E09
:1054500005939BE6079B01330793D7E606280300D5
:105460003228030065280300FCB6020096280300DA
:105470000000C842CA280300FF280300F0B5A1B00D
:1054800005000C000D920A2800D0E6E10DAB0F9349
:105490000123073D1093059215403DD11368C04A82
:1054A000934206D10FAA10A905981BF041FD05955E
:1054B00002E0BC4A9342FAD1109B11A907930F9BBB
:1054C00020000893FFF7E8F8002309900B93A30747
:1054D00006D1B54A23689B1A59425941CBB20B9366
:1054E00014AA102118A802F0EBFC119A0027944688
:1054F000099B099C63440493049BA3420FD8079B18
:10550000AA48BB4229D10B9BA748002B00D1A84831
:1055100018A9FFF751F8BBE100230593CCE72178E8
:10552000252904D018A81DF08EFF0134E4E7049B60
:10553000661CB34202D89F4804F07AFB61782529A3
:1055400004D118A81DF07FFF3400EEE700252829BC
:1055500015D1059BAB4202D1974804F029FDA01C50
:1055600006003378292B1DD1311A0122FFF75AF892
:10557000010005980CF05CF80127050001360023B6
:10558000340040220026302104200A932033069361
:10559000049BA34219D923782D2B0AD12C3B1E43FF
:1055A0000134F5E7049BB34201D88448C4E70136CF
:1055B000D7E72B2B01D1293BF1E7202B01D1064363
:1055C000EEE7232B4AD0302B45D000231293049BC7
:1055D000A34246D801235B421393049BA342AAD95A
:1055E00023782E2B16D1049B601C8342A3D96378A9
:1055F0002A2B50D1079BBB4239D97B1C0C93089BAB
:10560000BF00F85809F09AF90C9F13900234049BDC
:10561000A34290D9002D06D1079BBB4227D9089AF7
:10562000BB009D5801372278672A5ED8652A00D3CF
:10563000D2E0582A76D036D81300453B022B00D84A
:10564000CAE0099B5E49E41A009413005D4805F026
:105650008DF9FDF7BFFE16430691A1E710230A93CB
:105660009EE723782A2B0FD1079BBB4201D85648CF
:1056700073E77B1C0C93089BBF00F85809F05EF998
:10568000013412900C9FA5E7200012AA04991CF087
:1056900014FC04009EE7002313AA049913931CF042
:1056A0000CFC0400B3E7632A49D0642AC9D1032261
:1056B0002B001340022B0AD1444B2B40062B06D063
:1056C000FF23DB05E8189043FCF7BCFC0500139BA7
:1056D0000A220393129B00960293069B0193612377
:1056E000290014A806F0C2F81FE7732A16D8722AF8
:1056F00000D381E0692ADAD06F2AA2D10A9B002B5D
:1057000002D084239B001E43139B00960393129B9D
:1057100008220293069B01936123E1E7752AC6D014
:10572000782A8ED11300139A173B0392129A029291
:10573000069A01920A9A164300961022D0E7234B4C
:105740002B40062B05D0AB0716D1194B2A689A427D
:1057500012D11CA92800FFF7BDFB1C9A0100012AE9
:1057600001D01B48F9E6129B0193202300933300DC
:1057700014A806F01FF8D8E62800FEF761FE0028FE
:105780000BD0280009F0DAF8129B1CA908700193CD
:105790002023012200933300EAE70E48DDE6C046ED
:1057A000909F02004CD00200C0AA02005C260300B9
:1057B00090A2020097250300A9250300C02503003D
:1057C00027260300FCB60200D6250300070080FF51
:1057D000FD25030016260300280009F013F9139B8A
:1057E00022780293129B011C0193069B14A800933C
:1057F00033001FF0F3F998E616AA10211CA802F056
:105800005FFB23781A00723A50425041C2B2722BA9
:1058100009D00B9B002B06D0AB0704D1594B29684C
:10582000994200D10422290016A808F0B7FF139A64
:105830001D9B002A00DA1393139A9A4200D91A008A
:10584000129B1E990193202314A80093330005F0A6
:10585000B1FF1CA81DF0B9FD67E6080008F086FF3F
:1058600016A907002000FEF717FF0590072D22D18B
:1058700018A90D9809F0A0F803000020834207D072
:105880001899814206DC404B0E309F4200D03F48C1
:1058900021B0F0BD169B1CA859431DF085FD1E9B31
:1058A0000121049300930598189B169A1CF08BF81D
:1058B0001CA938002DE60D9808F058FF87420FD13B
:1058C0001CA90D98FEF7E8FE1C9E04901D2D18D80B
:1058D000192D4FD2052D22D0122D20D00020D7E730
:1058E000284B9F420AD101221CA90D981FF08EFE61
:1058F0000028CDD01C9B1D9E0493E7E70D98FEF772
:10590000E1FD1F2DEAD10123049A0093169933007B
:1059100005981CF0EAFA00282AD01D48B8E7169B23
:10592000002B07D10D9808F021FF874202D10D9C72
:105930002000ADE7002EFBD0169B1CA8F1181DF02F
:1059400033FD1E9B169A05991800069323F09BF9C8
:10595000169A1E9B944605936344180032000499DE
:1059600023F091F91CA93800FEF726FE0400DFE7BA
:1059700008488DE70096049B169A059928001CF0AC
:1059800058F8C8E7C0AA020090A20200B0AA02001C
:10599000A09B0200989B0200F0B5050087B0086844
:1059A0000C0008F0E3FE0090012D2AD96668022D54
:1059B00028D0A06808F0C2FF0500002108001FF0F1
:1059C000DDFC04A901902068FEF766FE049B04003C
:1059D000C7183D4B9E423FD1BC422CD2207804F0E8
:1059E0007DFB002811D1BC4225D2002D0FD1210012
:1059F0003A1B00981CF098FA0100019808F012F97F
:105A000019E0314E01256D42D7E70134E4E7260065
:105A1000307804F063FB002802D10136B742F7D199
:105A20002100321B00981CF07FFA0100019808F059
:105A3000F9F8B74202D8019807B0F0BD34002078D9
:105A400004F04CFB002802D00134A742F7D1EB1739
:105A50005B1BDB0FED1AC6E7300008F087FE009BEA
:105A6000834202D03000FEF72DFD05A93000FFF77C
:105A700031FA059B0390002B14D1144804F0D8F898
:105A80003E002100321B00981CF04EFA01000198E4
:105A900008F0C8F8BE42CED2059BF418EB175B1B8A
:105AA000DB0FED1A2600059B0293002DE8D0029B28
:105AB000F3189F42E4D3029A0399300023F0D4F8FC
:105AC0000028DED00136F0E75CA402003129030093
:105AD000F0B507008BB00D00022805D8290038006A
